{
  "contractName": "SimpleVote",
  "abi": [
    {
      "constant": true,
      "inputs": [],
      "name": "totalVotes",
      "outputs": [
        {
          "name": "",
          "type": "int256"
        }
      ],
      "payable": false,
      "stateMutability": "view",
      "type": "function"
    },
    {
      "constant": true,
      "inputs": [
        {
          "name": "",
          "type": "uint256"
        }
      ],
      "name": "votes",
      "outputs": [
        {
          "name": "",
          "type": "int8"
        }
      ],
      "payable": false,
      "stateMutability": "view",
      "type": "function"
    },
    {
      "constant": true,
      "inputs": [
        {
          "name": "",
          "type": "address"
        }
      ],
      "name": "getVote",
      "outputs": [
        {
          "name": "",
          "type": "int8"
        }
      ],
      "payable": false,
      "stateMutability": "view",
      "type": "function"
    },
    {
      "constant": true,
      "inputs": [],
      "name": "maxVoteValue",
      "outputs": [
        {
          "name": "",
          "type": "int8"
        }
      ],
      "payable": false,
      "stateMutability": "view",
      "type": "function"
    },
    {
      "constant": true,
      "inputs": [
        {
          "name": "",
          "type": "uint256"
        }
      ],
      "name": "voters",
      "outputs": [
        {
          "name": "",
          "type": "address"
        }
      ],
      "payable": false,
      "stateMutability": "view",
      "type": "function"
    },
    {
      "inputs": [
        {
          "name": "_maxVoteValue",
          "type": "int8"
        }
      ],
      "payable": false,
      "stateMutability": "nonpayable",
      "type": "constructor"
    },
    {
      "constant": false,
      "inputs": [
        {
          "name": "_vote",
          "type": "int8"
        }
      ],
      "name": "vote",
      "outputs": [
        {
          "name": "",
          "type": "bool"
        }
      ],
      "payable": false,
      "stateMutability": "nonpayable",
      "type": "function"
    }
  ],
  "bytecode": "0x608060405234801561001057600080fd5b506040516020806105878339810180604052602081101561003057600080fd5b810190808051906020019092919050505080600360006101000a81548160ff021916908360000b60ff160217905550506105188061006f6000396000f3fe608060405260043610610078576000357c0100000000000000000000000000000000000000000000000000000000900463ffffffff1680630d15fd771461007d5780635df81330146100a85780638c402ac5146100fd5780638d337b8114610153578063c7811548146101be578063da58c7d9146101ef575b600080fd5b34801561008957600080fd5b5061009261026a565b6040518082815260200191505060405180910390f35b3480156100b457600080fd5b506100e1600480360360208110156100cb57600080fd5b8101908080359060200190929190505050610270565b604051808260000b60000b815260200191505060405180910390f35b34801561010957600080fd5b506101396004803603602081101561012057600080fd5b81019080803560000b90602001909291905050506102a3565b604051808215151515815260200191505060405180910390f35b34801561015f57600080fd5b506101a26004803603602081101561017657600080fd5b81019080803573ffffffffffffffffffffffffffffffffffffffff16906020019092919050505061047b565b604051808260000b60000b815260200191505060405180910390f35b3480156101ca57600080fd5b506101d361049b565b604051808260000b60000b815260200191505060405180910390f35b3480156101fb57600080fd5b506102286004803603602081101561021257600080fd5b81019080803590602001909291905050506104ae565b604051808273ffffffffffffffffffffffffffffffffffffffff1673ffffffffffffffffffffffffffffffffffffffff16815260200191505060405180910390f35b60025481565b60018181548110151561027f57fe5b9060005260206000209060209182820401919006915054906101000a900460000b81565b6000600360009054906101000a900460000b60000b8260000b13151515610358576040517f08c379a00000000000000000000000000000000000000000000000000000000081526004018080602001828103825260238152602001807f566f74656420666f722076616c756520686967686572207468616e20616c6c6f81526020017f776564000000000000000000000000000000000000000000000000000000000081525060400191505060405180910390fd5b81600460003373ffffffffffffffffffffffffffffffffffffffff1673ffffffffffffffffffffffffffffffffffffffff16815260200190815260200160002060006101000a81548160ff021916908360000b60ff16021790555060003390806001815401808255809150509060018203906000526020600020016000909192909190916101000a81548173ffffffffffffffffffffffffffffffffffffffff021916908373ffffffffffffffffffffffffffffffffffffffff16021790555050600182908060018154018082558091505090600182039060005260206000209060209182820401919006909192909190916101000a81548160ff021916908360000b60ff16021790555050600260008154809291906001019190505550919050565b60046020528060005260406000206000915054906101000a900460000b81565b600360009054906101000a900460000b81565b6000818154811015156104bd57fe5b906000526020600020016000915054906101000a900473ffffffffffffffffffffffffffffffffffffffff168156fea165627a7a72305820ba9ff8291f575834301aef6675f37f8e9ba1dfe7a9c5c8609968e108fdaa05420029",
  "source": "pragma solidity ^0.5.0;\n\ncontract SimpleVote {\n    \n    // simply iterate over arrays, with totalVotes - 1 as an index\n    address[] public voters;\n    int8[] public votes;\n    int256 public totalVotes;\n    int8 public maxVoteValue;\n    \n    mapping (address=> int8) public getVote;\n\n    constructor (int8 _maxVoteValue) public {\n        maxVoteValue = _maxVoteValue;\n    }\n    \n    function vote(int8 _vote) public returns (bool) {\n        // TODO: Uncomment next line in production, testing is easier like this now. It's prohibiting users from votig multiple times.\n        //require(getVote[msg.sender] == 0, \"Sender has voted already\");\n        require(_vote <= maxVoteValue, \"Voted for value higher than allowed\");\n        getVote[msg.sender] = _vote;\n        voters.push(msg.sender);\n        votes.push(_vote);\n        totalVotes++;\n    }\n    \n}",
  "sourcePath": "/home/anna/AETERNITY/aepp-hybrid-voting/eth-voting-vue/contracts/SimpleVote.sol",
  "compiler": {
    "name": "solc",
    "version": "0.5.0+commit.1d4f565a.Emscripten.clang"
  },
  "schemaVersion": "2.0.1",
  "updatedAt": "2019-04-15T12:49:16.466Z"
}