{
  "contractName": "SimpleVote",
  "abi": [
    {
      "constant": true,
      "inputs": [
        {
          "name": "",
          "type": "address"
        }
      ],
      "name": "hasVoted",
      "outputs": [
        {
          "name": "",
          "type": "bool"
        }
      ],
      "payable": false,
      "stateMutability": "view",
      "type": "function",
      "signature": "0x09eef43e"
    },
    {
      "constant": true,
      "inputs": [],
      "name": "totalVotes",
      "outputs": [
        {
          "name": "",
          "type": "int256"
        }
      ],
      "payable": false,
      "stateMutability": "view",
      "type": "function",
      "signature": "0x0d15fd77"
    },
    {
      "constant": true,
      "inputs": [
        {
          "name": "",
          "type": "uint256"
        }
      ],
      "name": "votes",
      "outputs": [
        {
          "name": "",
          "type": "int8"
        }
      ],
      "payable": false,
      "stateMutability": "view",
      "type": "function",
      "signature": "0x5df81330"
    },
    {
      "constant": true,
      "inputs": [
        {
          "name": "",
          "type": "address"
        }
      ],
      "name": "getVote",
      "outputs": [
        {
          "name": "",
          "type": "int8"
        }
      ],
      "payable": false,
      "stateMutability": "view",
      "type": "function",
      "signature": "0x8d337b81"
    },
    {
      "constant": true,
      "inputs": [],
      "name": "maxVoteValue",
      "outputs": [
        {
          "name": "",
          "type": "int8"
        }
      ],
      "payable": false,
      "stateMutability": "view",
      "type": "function",
      "signature": "0xc7811548"
    },
    {
      "constant": true,
      "inputs": [
        {
          "name": "",
          "type": "uint256"
        }
      ],
      "name": "voters",
      "outputs": [
        {
          "name": "",
          "type": "address"
        }
      ],
      "payable": false,
      "stateMutability": "view",
      "type": "function",
      "signature": "0xda58c7d9"
    },
    {
      "inputs": [
        {
          "name": "_maxVoteValue",
          "type": "int8"
        }
      ],
      "payable": false,
      "stateMutability": "nonpayable",
      "type": "constructor",
      "signature": "constructor"
    },
    {
      "constant": false,
      "inputs": [
        {
          "name": "_vote",
          "type": "int8"
        }
      ],
      "name": "vote",
      "outputs": [
        {
          "name": "",
          "type": "bool"
        }
      ],
      "payable": false,
      "stateMutability": "nonpayable",
      "type": "function",
      "signature": "0x8c402ac5"
    }
  ],
  "bytecode": "0x608060405234801561001057600080fd5b506040516020806107328339810180604052602081101561003057600080fd5b810190808051906020019092919050505080600360006101000a81548160ff021916908360000b60ff160217905550506106c38061006f6000396000f3fe608060405260043610610083576000357c0100000000000000000000000000000000000000000000000000000000900463ffffffff16806309eef43e146100885780630d15fd77146100f15780635df813301461011c5780638c402ac5146101715780638d337b81146101c7578063c781154814610232578063da58c7d914610263575b600080fd5b34801561009457600080fd5b506100d7600480360360208110156100ab57600080fd5b81019080803573ffffffffffffffffffffffffffffffffffffffff1690602001909291905050506102de565b604051808215151515815260200191505060405180910390f35b3480156100fd57600080fd5b506101066102fe565b6040518082815260200191505060405180910390f35b34801561012857600080fd5b506101556004803603602081101561013f57600080fd5b8101908080359060200190929190505050610304565b604051808260000b60000b815260200191505060405180910390f35b34801561017d57600080fd5b506101ad6004803603602081101561019457600080fd5b81019080803560000b9060200190929190505050610337565b604051808215151515815260200191505060405180910390f35b3480156101d357600080fd5b50610216600480360360208110156101ea57600080fd5b81019080803573ffffffffffffffffffffffffffffffffffffffff169060200190929190505050610626565b604051808260000b60000b815260200191505060405180910390f35b34801561023e57600080fd5b50610247610646565b604051808260000b60000b815260200191505060405180910390f35b34801561026f57600080fd5b5061029c6004803603602081101561028657600080fd5b8101908080359060200190929190505050610659565b604051808273ffffffffffffffffffffffffffffffffffffffff1673ffffffffffffffffffffffffffffffffffffffff16815260200191505060405180910390f35b60046020528060005260406000206000915054906101000a900460ff1681565b60025481565b60018181548110151561031357fe5b9060005260206000209060209182820401919006915054906101000a900460000b81565b6000801515600460003373ffffffffffffffffffffffffffffffffffffffff1673ffffffffffffffffffffffffffffffffffffffff16815260200190815260200160002060009054906101000a900460ff161515141515610400576040517f08c379a00000000000000000000000000000000000000000000000000000000081526004018080602001828103825260188152602001807f53656e6465722068617320766f74656420616c7265616479000000000000000081525060200191505060405180910390fd5b600360009054906101000a900460000b60000b8260000b131515156104b3576040517f08c379a00000000000000000000000000000000000000000000000000000000081526004018080602001828103825260238152602001807f566f74656420666f722076616c756520686967686572207468616e20616c6c6f81526020017f776564000000000000000000000000000000000000000000000000000000000081525060400191505060405180910390fd5b81600560003373ffffffffffffffffffffffffffffffffffffffff1673ffffffffffffffffffffffffffffffffffffffff16815260200190815260200160002060006101000a81548160ff021916908360000b60ff16021790555060011515600460003373ffffffffffffffffffffffffffffffffffffffff1673ffffffffffffffffffffffffffffffffffffffff16815260200190815260200160002060009054906101000a9050505060003390806001815401808255809150509060018203906000526020600020016000909192909190916101000a81548173ffffffffffffffffffffffffffffffffffffffff021916908373ffffffffffffffffffffffffffffffffffffffff16021790555050600182908060018154018082558091505090600182039060005260206000209060209182820401919006909192909190916101000a81548160ff021916908360000b60ff16021790555050600260008154809291906001019190505550919050565b60056020528060005260406000206000915054906101000a900460000b81565b600360009054906101000a900460000b81565b60008181548110151561066857fe5b906000526020600020016000915054906101000a900473ffffffffffffffffffffffffffffffffffffffff168156fea165627a7a723058205306b6ac4a3aaf2bc6562296a89818a41d26e75ba3685322b77d89e426a3348e0029",
  "source": "pragma solidity ^0.5.0;\n\ncontract SimpleVote {\n    \n    // simply iterate over arrays, with totalVotes - 1 as an index\n    address[] public voters;\n    int8[] public votes;\n    int256 public totalVotes;\n    int8 public maxVoteValue;\n    \n    mapping (address=> bool) public hasVoted;\n    mapping (address=> int8) public getVote;\n\n    constructor (int8 _maxVoteValue) public {\n        maxVoteValue = _maxVoteValue;\n    }\n    \n    function vote(int8 _vote) public returns (bool) {\n        require(hasVoted[msg.sender] == false, \"Sender has voted already\");\n        require(_vote <= maxVoteValue, \"Voted for value higher than allowed\");\n        getVote[msg.sender] = _vote;\n        hasVoted[msg.sender] == true;\n        voters.push(msg.sender);\n        votes.push(_vote);\n        totalVotes++;\n    }\n    \n}",
  "sourcePath": "/Users/ethereumbook/Documents/DAPPS/Aeternity/voting-miningreward/aepp-hybrid-voting/eth-voting-vue/contracts/SimpleVote.sol",
  "compiler": {
    "name": "solc",
    "version": "0.5.0+commit.1d4f565a.Emscripten.clang"
  },
  "schemaVersion": "3.0.6",
  "updatedAt": "2019-04-01T18:15:30.454Z",
  "devdoc": {
    "methods": {}
  },
  "userdoc": {
    "methods": {}
  }
}